:020000040800F2
:100000002815002049010008131F0008291B0008BB
:10001000111F0008C90500080128000800000000A1
:10002000000000000000000000000000DD210008CA
:100030007D060008000000008F21000859240008F8
:100040006301000863010008630100086301000800
:1000500063010008630100086301000863010008F0
:1000600063010008630100086301000863010008E0
:1000700063010008630100086301000863010008D0
:1000800063010008630100086301000863010008C0
:1000900063010008630100086301000863010008B0
:1000A00063010008630100086301000863010008A0
:1000B0006301000863010008630100086301000890
:1000C0006301000863010008630100086301000880
:1000D000630100086D270008630100089D270008E0
:1000E000BD090008630100086301000863010008FE
:1000F0006301000863010008630100086301000850
:10010000630100086301000863010008630100083F
:10011000630100086301000863010008630100082F
:10012000630100086301000863010008630100081F
:10013000DFF810D000F0A0F8004800479D2B000821
:10014000AFF3008028150020064880470648004786
:10015000FEE7FEE7FEE7FEE7FEE7FEE7FEE7FEE777
:10016000FEE7FEE7BB2400083101000840EA010376
:100170009B0703D009E008C9121F08C0042AFAD25D
:1001800003E011F8013B00F8013B521EF9D2704721
:10019000D2B201E000F8012B491EFBD270470022C9
:1001A000F6E710B513460A4604461946FFF7F0FF76
:1001B000204610BD30B505462A460B4612F8010B05
:1001C00013F8014B08B1A042F8D01CB1002802D0AE
:1001D0006D1CF1E7284630BD10B5044604E00B78ED
:1001E00000F8013B03B1491C521EF8D2204610BD55
:1001F000421C10F8011B0029FBD1801A704710B572
:10020000002200E0521C835C8C5CA34201D1002BD5
:10021000F8D1D8B2E1B2401A10BD034611F8012B53
:1002200000F8012B002AF9D11846704730B5054671
:100230000020034600E05B1C934205D2EC5CC85CE6
:10024000201A01D1002CF6D130BD30B50B46014645
:1002500000202022012409E021FA02F59D4205D365
:1002600003FA02F5491B04FA02F52844151EA2F10F
:100270000102F1DC30BD0000064C074D06E0E068ED
:1002800040F0010394E8070098471034AC42F6D3DD
:10029000FFF752FF88340008A834000870B58C18A6
:1002A00010F8015B15F0070301D110F8013B2A118A
:1002B00006D110F8012B03E010F8016B01F8016B77
:1002C0005B1EF9D12B0705D40023521E0DD401F873
:1002D000013BFAE710F8013BCB1A921C03E013F83C
:1002E000015B01F8015B521EF9D5A142D8D3002071
:1002F00070BD00002DE9F0430F460546014699B058
:1003000000242AA002F0BAFA2E4E3068816888478D
:100310002846FFF76DFF024630682946C3689847B4
:100320003068022228A1C368984701F0F9FC05460D
:10033000E84633E0306808EB0401894602699047DB
:1003400030BB18F8041021A002F098FAFCB119F89B
:10035000011C0D291BD118F804000A2817D1611CB3
:10036000684602F00DFC30B119A002F087FA0020B7
:1003700019B0BDE8F083611C684602F0F3FB28B1B8
:1003800015A002F07BFA4FF0FF30F1E70024641C67
:1003900001F0C6FCA84201DD05467F1E002FC9D131
:1003A0000FA002F06BFAB81EE2E7000053656E641E
:1003B000204154436F6D6D616E643A2025730D0AC0
:1003C00000000000500100200D0A0000256300001D
:1003D0004F4B0D0A000000004552524F520D0A00CB
:1003E00074696D656F75740D0A0000002DE9F047A2
:1003F000DFF8988081460D46D8F8000017460024A3
:100400008168464688474846FFF7F2FE0246306854
:100410004946C3689847306802221DA1C3689847BF
:1004200001F07EFC0646A1462BE0D8F80000291911
:100430008A4602699047F0B9E4B11AF8010C0D2818
:1004400018D1285D0A2815D1611C284602F098FBB6
:1004500028B12919002081F80190BDE8F087611CBE
:10046000284602F07FFB28B129194FF0FF3081F8B0
:100470000190F2E7641C01F053FCB04201DD064636
:100480007F1E002FD1D1B81EE7E7000050010020E9
:100490000D0A00002DE9F74F4FF000099AB01746FA
:1004A00088464C464E4601F03BFC0546EA4648E08D
:1004B00026480AEB04018B4600680269904748BB56
:1004C0005FEA090005D001280FD0B9F1020F32D13F
:1004D00021E000218BF801101DA16846FFF76AFE9C
:1004E00008B1012014E0641C25E01AF8040051460C
:1004F0003A28F8D100206FF02F0206E00B5C06EBE3
:10050000860602EB46061E44401CA042F6DB022093
:10051000814600240FE01A981AF804100155641C53
:10052000B44208D1B8F1000F01D0C8F80060002033
:100530001DB0BDE8F08F01F0F3FBA84201DD0546D8
:100540007F1E002FB4D1B81EF2E70000500100203A
:100550002B4950442C00000010B500F09DFA0349CF
:10056000086041688847002010BD0000500100204D
:10057000014800F085B80000C4000020FFF7F8BF74
:10058000014800F051BA0000F0000020FFF7F8BF6A
:10059000014801F0B9BB000020000020014801F033
:1005A000B3BB00004400002010B5FFF7F1FFBDE829
:1005B0001040FFF7F3BF0000014801F0ABBC0000A2
:1005C0000C010020FFF7F8BFFEE700F06FBB00F062
:1005D0007FBB01F0B3BB00F06DBD00F0ABBD0020F0
:1005E0007047406801F0C1BC10B501F0A7FA01F0F6
:1005F000CDFC002010BD10B502F0F2F8002010BDB7
:1006000010B50B460179022903D04FF0FF3219B122
:1006100009E000F118010BE0416921B900690128E6
:1006200003D0022803D0104610BD04A100E00BA1A6
:100630001846FFF7F2FD002010BD00007B22646524
:1006400076223A226C616D7031222C2273746174AF
:100650007573223A2232227D000000007B226465FD
:1006600076223A226C616D7032222C22737461748E
:100670007573223A2232227D00000000704700008C
:1006800002490A684262086070470000C00000200A
:1006900030B59FB040F2D24523A000F045FA826AFF
:1006A000044619A9904720B121A002F0E7F81FB035
:1006B00030BD2A4619A922A002F0E0F8216B20469D
:1006C0008847E36A2A4625A120469847002829D072
:1006D00023A000BF02F0D2F827A000F0E5F90446FD
:1006E00041694068FFF75BFD25A30F2200212046EA
:1006F00001F08AFD19AB1F220021204601F084FD84
:100700002A4620A1684602F0C9F86B462F22002134
:10071000204601F079FD1DA33F220021204601F073
:1007200073FDC4E71DA0D5E7657370383236360017
:10073000476574496E666F206572720D0A0000008D
:10074000426F617264204950203D2025732C207037
:100750006F7274203D2025640D0A000075647000DE
:10076000437265617465205472616E7366657220B0
:100770006572720D0A0000004F4C454400000000F5
:1007800049503A00506F72743A2564007777772E9B
:1007900031303061736B2E6E657400004372656199
:1007A0007465205472616E73666572206F6B0D0AFA
:1007B000000000000A2101A0FFF79CBD41542B431B
:1007C0004950434C4F53450000B5134699B00A4673
:1007D00005A1684602F062F842F210716846FFF720
:1007E00089FD19B000BD000041542B43574A4150C8
:1007F0003D222573222C22257322000000B599B0DA
:1008000004A1684602F04AF80A216846FFF772FD23
:1008100019B000BD41542B43495053544152543DEB
:1008200022554450222C223139322E3136382E3185
:100830002E31222C383038302C25642C3200000028
:10084000F0B52B4C0246294E606893B0431C3254DD
:10085000636094F800C00025BCF1000F20D0214651
:1008600002278968BCF1010F2BD0BCF1020F15D112
:100870008B4213D101F054FA00908DF80470314688
:1008800006A8A268FFF7A8FCA1680DEB0100057699
:10089000684601F07DFC25706560A56013B0F0BD71
:1008A00031782B2901D06560F8E70428F6D10522BC
:1008B00010A13046FFF7BAFC0028F4D101202070C7
:1008C000F1E73A2AEAD100226FF02F0308E000BFD7
:1008D00016F802C001EB810103EB41016144521C97
:1008E0008242F5DBA1602770DDE70000E808002008
:1008F000380000202B4950442C00000030B5B3B024
:100900000D46044642F2107269460FA0FFF76EFDD5
:10091000B8B910A16846FFF74DFC90B100210E3028
:1009200002E06318491C1A71425C222AF9D1214461
:1009300000200871211D2846FFF76FFC002033B00E
:1009400030BD4FF0FF30FAE741542B434946535234
:10095000000000002B43494653523A53544149503A
:100960002C22000010B5FFF7F7FD0A2104A0FFF7C5
:10097000C1FC0A2105A0FFF7BDFC002010BD00004E
:1009800041542B43574D4F44453D330041542B4375
:1009900049504D55583D300010B5024801F02EFC2D
:1009A000002010BD4108000830B414460846214616
:1009B00030BC1A46FFF76EBD0020704710B54FF4EB
:1009C000804000F065FABDE810404FF4004000F0B0
:1009D0005FBA000010B501220021252000F0FCFBC9
:1009E000252000F0EBFB03480068C16841F060017E
:1009F000C16010BD6005002010B501220021272034
:100A000000F0EAFB272000F0D9FB03480068C1682A
:100A100041F02001C16010BDA405002072B6FEE7C0
:100A200001F07CB90020704702490A684261086001
:100A3000704700000801002010B501F073F9002094
:100A400010BD000070B50F4A0825102402EB0013FA
:100A5000A1B10A690A6048690832A0F10F064E6028
:100A6000C1E90620C1E90254086A28B110221946DA
:100A7000FFF77CFB002070BD0B62FBE74FF0FF30FF
:100A800070BD00004E2C000808B108220260002949
:100A900001D010200860704700487047AC0000206B
:100AA000007808600120704701F00CBF00487047D3
:100AB000A0000020014A126812691047EC000020D3
:100AC00001F014BF10B54FF0FF3130B10F4CD4F826
:100AD000FC22D4F8F8329A4201D1084610BDD4F86D
:100AE000FC1201EB410202EB011104EB81014C22EB
:100AF000FFF73CFBD4F8FC020A21401CB0FBF1F2EA
:100B000001FB1200C4F8FC02002010BDE805002023
:100B1000022805D8034900EB400001EBC0007047F4
:100B2000002070475800002001F0F4BE00487047D4
:100B30001C09002010B590F821100022022905D0D0
:100B40000421816380F82020012010BD01680B681A
:100B500023F00E030B6001680B6823F001030B60A8
:100B600090F84030C46B012101FA03F3636080F810
:100B7000211080F82020104610BD00002DE9F05F04
:100B800090F821100024022903D00421816301245C
:100B900085E001680A6822F00E020A6001680A68AE
:100BA00022F001020A603F4E3E4FB215DFF8F4C05A
:100BB000DFF8F090DFF8ECA0DFF8E8B0DFF8E4E071
:100BC0000168783F13011502ACF1640CA9F15009DA
:100BD000AAF13C0AABF1280BAEF1140E4FF48018C9
:100BE000B14227D9B9420ED0614512D049451DD036
:100BF000514518D0594518D0714501D1424615E0EC
:100C0000294EB14201D1012210E0274E1436B142E3
:100C100001D110220AE0244E2836B14206D0224AE1
:100C20003C32914201D11A4600E02A461E49091F72
:100C30000A602BE0B94213D0614517D0494522D054
:100C400051451DD059451DD0714501D142461AE08C
:100C5000B14202D14FF0807215E0134EB14201D182
:100C6000012210E0104E1436B14201D110220AE0E8
:100C70000D4E2836B14206D00B4A3C32914201D18A
:100C80001A4600E02A46074980394A60012180F867
:100C90002110002180F82010416B01B188472046C7
:100CA000BDE8F09F800002400804024070B5044691
:100CB00000F000FA0546601C02D0044800780444A5
:100CC00000F0F8F9401BA042FAD370BD00000020EC
:100CD00010B560B10E480F4C00290BD00CDD4FF061
:100CE00000024FF0400100F0E0F9012209E04FF06E
:100CF000FF3010BD002200E00122402100F0D5F9B4
:100D000000224021204600F0D0F9002010BD000054
:100D100000180140001001402DE9F04300233E4F30
:100D20000F2574E001229A400A406ED023F003049C
:100D3000E619D6F808809C074FEA147C05FA0CF9EE
:100D400009EA0804DFF8D480404502D14FF00008DA
:100D500024E0DFF8CC80404502D14FF001081DE0CF
:100D6000DFF8C080404502D14FF0020816E0DFF8FE
:100D7000B880404502D14FF003080FE0DFF8AC80A7
:100D8000404502D14FF0040808E0DFF8A480404558
:100D900002D14FF0050801E04FF0060808FA0CF800
:100DA000A04515D1D6F808C02CEA090CC6F808C031
:100DB000204E346894433460341D26689643266080
:100DC000241D266896432660241D266896432660C7
:100DD000FF2A01D8064601E000F104064FEA830429
:100DE00001D9A4F12004D6F800C005FA04F82CEAD1
:100DF000080C4FF0040808FA04F84CEA080CC6F88E
:100E000000C0C46824EA0204C46003F1010331FA9B
:100E100003F287D1BDE8F0830000014000080140E3
:100E2000000C014000100140001401400018014076
:100E3000001C01400004014070B54FF480450024BF
:100E4000124E94B0A8420CD100F06AFF00908DF8C9
:100E5000044001200FE00590684601F099F914B0B4
:100E600070BD4FF40045A842F9D100F059FF009041
:100E70008DF80440022004902946304600F010F915
:100E800008B10020E7E70120E5E700000018014075
:100E9000044910B50A68024202D00860FFF7CCFF8F
:100EA00010BD0000140401402DE9F84FDFF8C8918F
:100EB000002409F1040A0AF1040B23460F270BF161
:100EC000040ED1E00125A54006EA0502AA4276D12A
:100ED000DFF8A8C14E68A6EB0C0866452BD00DDCE8
:100EE000032E34D005DC36B3012E19D0022E2FD1BB
:100EF0001BE0112E16D0122E2AD119E0B8F5881F4A
:100F000019D006DCB8F5803F15D0B8F5801F1FD189
:100F100011E0B8F5001F0ED0B8F5041F18D10AE093
:100F2000CB6815E0CB681B1D12E0CB6808330FE0DF
:100F3000CB680C330CE08B682BB1012B4FF008030E
:100F400003D0456104E0042302E0056100E00023D2
:100F5000FF2A01D8064601E000F104064FEA8405A5
:100F600001D9A5F12005D6F8008007FA05FC28EA8A
:100F70000C0803FA05F548EA0508C6F800804D6834
:100F8000ED0070D53E4DAE6946F00106AE61AD692B
:100F900024F0030605F0010500953A4D06EB050C1B
:100FA000DCF80850A607360F07FA06F825EA080508
:100FB000DFF8D480404503D14FF0000825E052E02F
:100FC000DFF8C880404502D14FF001081DE0DFF88E
:100FD000C080404502D14FF0020816E0DFF8B4802F
:100FE000404502D14FF003080FE0DFF8AC804045E8
:100FF00002D14FF0040808E0DFF8A080404502D19C
:101000004FF0050801E04FF0060808FA06F848EA34
:101010000508CCF808804D68D9F80060ED034D460E
:1010200001D5164300E096432E604D68DAF8006063
:10103000AD03554601D5164300E096432E604D683A
:10104000DBF80060ED025D4601D5164300E09643F3
:101050002E604D68DEF80060AD02754601D516437E
:1010600000E096432E60641C0A681646E2407FF456
:1010700029AFBDE8F88F0000000401400000111006
:10108000001002400000014000080140000C014037
:10109000001001400014014000180140001C0140F4
:1010A0008068084000D0012070470AB10161704794
:1010B0000904FBE701488068704700000000002039
:1010C0000248816802781144816070470000002066
:1010D000074810B5016841F010010160032000F0DD
:1010E0009BF8002000F006F800F04AF8002010BD40
:1010F0000020024070B50D4D04464FF47A712878F7
:10110000B1FBF0F00A490968B1FBF0F000F012FB06
:1011100048B9102C07D200222146501E00F05CF87E
:1011200000206C6070BD012070BD00000000002038
:101130000C00002010B54FF0FF3390B1022901D010
:1011400019B105E0416811B10021012201E001213E
:10115000002241600168094829B1012905D002290E
:1011600009D0184610BD802101E04FF48071FFF7CF
:101170009CFF002010BD4FF40071F8E7001C0140F7
:101180000C4808B5816941F001018161816901F074
:1011900001010091C16941F08051C161C06900F055
:1011A000805000900448416821F0E06141F00071F6
:1011B000416008BD0010024000000140002809DB2A
:1011C00000F01F02012191404009800000F1E02061
:1011D000C0F8001170470000F0B40E4B1B680C46BD
:1011E000C3F30223C3F10705042D00D90425191DFB
:1011F000072901D2002300E0DB1E012606FA05F1D3
:10120000491E214099409E40761E16403143F0BC55
:1012100001F094BB0CED00E0064900F007020868FD
:101220004FF6FF03184040EA0220034A10430860CB
:10123000704700000CED00E00000FA052DE9F047D2
:101240000F46050061D0434E306800F00700B842F9
:1012500009D2306820F0070038433060306800F071
:101260000700B84251D128683B4C810712D540078E
:1012700003D5606840F4E06060602878000703D51B
:10128000606840F4605060606068A96820F0F00019
:10129000084360602878C00728D06868012810D00B
:1012A0002168022810D0890700292EDA616821F010
:1012B000030101436160FFF7FDFE804641F288397A
:1012C0000DE021688903EFE78901EDE7FFF7F2FE02
:1012D000A0EB0801494502D90320BDE8F08760680A
:1012E000696800F00C00B0EB810FEFD1306800F0BE
:1012F0000700B8420BD9306820F00700384330604F
:10130000306800F00700B84201D00120E5E72878F6
:10131000400705D56068E96820F4E0600843606034
:101320002878000706D56068296920F4605040EAF3
:10133000C100606000F038F86168084AC1F3031129
:10134000515CC8400649086006480068FFF7D2FEB5
:101350000020C2E70020024000100240362C0008A6
:101360000C0000200400002004480549006849687A
:10137000044AC1F30221515CC84070470C000020B0
:1013800000100240462C00080448054900684968DE
:10139000044AC1F3C221515CC84070470C000020D0
:1013A00000100240462C000812A185B00FC98DE83C
:1013B0000F0014A0144A006804905168134801F00B
:1013C0000C03042B10D0082B0ED1C1F38343C903A7
:1013D0001DF803000AD5516804AAC1F34041515CCD
:1013E0000A4A5043B0FBF1F005B070470849484342
:1013F000FAE7000002030405060708090A0B0C0DB2
:101400000E0F1010010200000010024000127A00BE
:1014100000093D002DE9F84F040070D02078C04D40
:10142000C00749D06868C0F38100012807D0686808
:10143000C0F38100022809D16868C00306D5286876
:10144000800339D560680028E7D035E06068B0F5E2
:10145000803F0BD010B1B0F5A02F11D0286820F438
:1014600080302860286820F4802002E0286840F45A
:1014700080302860606890B1FFF71CFE06460AE0E5
:10148000286840F480202860F0E700BFFFF712FED4
:10149000801B642873D828688003F7D50CE0FFF719
:1014A00009FE064605E000BFFFF704FE801B642826
:1014B000F0D828688003F7D420789A4E80074FF040
:1014C00001094FF0000839D5686810F00C0F07D0FB
:1014D0006868C0F38100022809D16868C00306D497
:1014E0002868800714D52069012808D110E02069F8
:1014F000B0B1C6F80090FFF7DDFD074605E00AE150
:10150000FFF7D8FDC01B0228C4D828688007F7D58C
:101510002868616920F0F80040EAC10028600DE009
:10152000C6F80080FFF7C6FD074604E0FFF7C2FDDE
:10153000C01B022823D828688007F7D4207800072A
:101540002CD57948A169D9B1C0F80090FFF7B2FD58
:10155000074604E0FFF7AEFDC01B02280FD8686AFB
:101560008007F7D571484FF4FA510068B0FBF1F0ED
:10157000009000BF0098411E0091FAD20EE080E07A
:10158000C0F80080FFF796FD074604E0FFF792FDE4
:10159000C01B022875D8686A8007F7D420784007F6
:1015A00060D5E8690027C00008D4E86940F08050A1
:1015B000E861E869012700F0805000905C4801680C
:1015C000C90513D40168834641F480710160FFF7B7
:1015D00071FD824606E000BFFFF76CFDA0EB0A003C
:1015E00064284ED8DBF80000C005F5D5E068012876
:1015F0000AD008B1052813D0286A20F0010028621B
:10160000286A20F0040002E0286A40F00100286205
:10161000E06841F2883B98B1FFF74CFD82460BE051
:10162000286A40F004002862EEE700BFFFF742FDA1
:10163000A0EB0A0159455AD8286A8007F6D50CE074
:10164000FFF738FD824605E0FFF734FDA0EB0A0105
:1016500059454CD8286A8007F6D41FB1E86920F0B4
:101660008050E861E06988B36968C1F381010229AB
:1016700044D00228C6F8608004D0FFF71BFD044662
:1016800038E034E0FFF716FD074604E0FFF712FDEF
:10169000C01B02282BD828688001F7D4206AB0F537
:1016A000803F05D16868A16820F400300843686075
:1016B000D4E908010843696821F47411084368609B
:1016C000C6F86090FFF7F6FC044606E025E000BF90
:1016D000FFF7F0FC001B022809D828688001F7D525
:1016E0001BE000BFFFF7E6FC001B022802D9032025
:1016F000BDE8F88F28688001F4D40EE00128F7D007
:101700006868226A00F48031914204D1616A00F471
:101710007010884201D00120EAE70020E8E70000CD
:101720000010024000004242800442420C000020AF
:101730000070004010B5401EB0F1807F01D3012041
:1017400010BD4FF0E02460610F21601701F0F6F842
:101750000020A06107202061002010BD7047704765
:10176000F8B5026804461068D168536910F00F0F8D
:101770004FF0000553D003F0010601F49077374392
:101780005FD0C20705D0CA0503D5226C42F0010222
:101790002264420705D5DA0703D0226C42F0020228
:1017A0002264820705D5DA0703D0226C42F00402D6
:1017B0002264020707D501F02002324303D0226CD5
:1017C00042F008022264226C002A34D0800604D53C
:1017D000880602D5204600F011FF20684069216C80
:1017E000C0F38010090700D430B3204600F0EEFEAD
:1017F0002068416949061BD5416921F040014161DA
:10180000A06BA8B158494163A06BFFF7B7F9002856
:1018100011D0A06B416B01B0BDE8F04008478306D2
:101820000FD58B060DD52046BDE8F84000F0E6BE8A
:101830002046FFF794FFF8BD2046FFF790FF256490
:10184000F8BD266B2023012E52D1C60650D5CE06F8
:101850004ED5106850680090506940062AD5A16B9B
:10186000086840680004000CEAD0A68D8642E7D9DB
:10187000E0858869202818D0D06820F48070D06076
:101880002068416921F0010141612068416921F02E
:101890004001416184F83E3025632068C16821F031
:1018A0001001C160A06BFFF745F9A08DE18D401AD2
:1018B00081B219E0A08DE18D401A81B2E08D00283F
:1018C000BED00029BCD0D06820F49070D0602068D1
:1018D000426922F00102426184F83E3025632068AB
:1018E000C26822F01002C2602046FFF737FFF8BD41
:1018F00005062BD50D0629D594F83D002128F6D1F3
:10190000A068B0F5805F01D12069B0B1206A411CA8
:101910002162216800784860E08C401E0004000CC1
:10192000E084E4D12068C16821F08001C1602068B2
:10193000C16841F04001C160F8BD206A0088C0F371
:1019400008005060206A801C2062E5E74006F3D55D
:101950004806F1D5D168204621F04001D16084F8D5
:101960003D3000F0D5F8F8BDBD25000870B5040085
:1019700004D094F83D00002510B106E0012070BDB0
:1019800084F83C50204600F023F8242084F83D00E1
:101990002068C16821F40051C160204600F08AFE31
:1019A0002068016921F4904101612068416921F0BA
:1019B0002A0141612068C16841F40051C160256479
:1019C000202084F83D0084F83E00002070BD000017
:1019D00070B586B0002400940194029403940368C7
:1019E00030482F4E451502210322B34222D183698C
:1019F00043F480438361836903F4804304938369E0
:101A000043F0040383618069CDE9005100F00400D4
:101A1000CDE90320244D69462846FFF745FA2815ED
:101A2000CDE900040120029069462846FFF73CFA00
:101A300006B070BD1D4EB342FAD1C36943F4802392
:101A4000C361C36903F480230493836943F02003D3
:101A500083618069039200F020000490B015CDE905
:101A60000001134E69463046FFF71EFACDE90054D7
:101A7000694630460294FFF717FA0E48416821F094
:101A8000300141F0E06141F0300141600022114637
:101A90002720FFF7A1FB2720FFF790FBC8E70000F6
:101AA000003801400010024000080140004800409A
:101AB000001401400000014000680349884202D13F
:101AC0000249012048707047003801401000002092
:101AD00090F83D30202B18D1A9B1A2B190F83C303C
:101AE000012B12D001628284C28400210164212270
:101AF00080F83D2080F83C100068C16841F080010A
:101B0000C16000207047012070470220704700002C
:101B100000680349884202D10249012008707047D9
:101B20000038014010000020FEE708B50090411E7B
:101B3000009101D30846FAE708BD000070B586B0F1
:101B40000020144E0090019002904FF480640390A6
:101B500021463046FFF7E0F8650029463046FFF79A
:101B6000DBF80D4A906940F0800090619069694609
:101B700000F0800004901120019003200390009455
:101B80003046FFF791F9694630460095FFF78CF92A
:101B900006B070BD001C0140001002402DE9F0416C
:101BA000194D00244FF48066224631462846FFF73F
:101BB0007CFA0122D70239462846FFF776FA6420DC
:101BC000FFF7B3FF012231462846FFF76EFA05E022
:101BD000641C642C10D00A20FFF7A7FF3946284662
:101BE000FFF75EFA0028F3D1002231462846FFF7BE
:101BF0005CFA0020BDE8F081002231462846FFF75C
:101C000054FA4FF0FF30F5E7001C014070B50C4C62
:101C1000012291022046FFF748FA0122D502294607
:101C20002046FFF742FA6420FFF77FFF0022294693
:101C30002046FFF73AFABDE870406420FFF775BF11
:101C4000001C014070B50D4D4FF400640022214688
:101C50002846FFF72AFA012291022846FFF725FAC3
:101C60006420FFF762FF012221462846FFF71DFA94
:101C7000BDE870406420FFF758BF0000001C014021
:101C80002DE9F041144F054600244FF400684FF44D
:101C90008066002231463846FFF707FA6420FFF7D6
:101CA00044FF280601D5012200E0002241463846C3
:101CB000FFF7FBF96806050E012231463846FFF7AB
:101CC000F4F96420FFF731FF641CE4B2082CE0D380
:101CD000BDE8F041FFF762BF001C01400348006807
:101CE000416801B10847002070470000EC00002067
:101CF000044810B5046802E0A06880472469002CFD
:101D0000FAD110BD3400002002490A68026108605F
:101D10007047000034000020FEF757BCFEF757BCA8
:101D2000FEF759BCFEF755BCFEF757BCFEF757BC93
:101D3000FEF757BCFEF758BCFEF75DBC10B586B089
:101D4000002003901648816941F04001816181695A
:101D500001F040010491816941F040018161806995
:101D6000114C00F0400004900E48019001200290B8
:101D70008003009069462046FFF796F84FF4004034
:101D8000009069462046FFF78FF8022200212820A4
:101D9000FFF722FA2820FFF711FA06B010BD000065
:101DA000001002400000311000180140FFF7BCBFD6
:101DB000FFF7BCBF2DE9F04F85B0002634480096F0
:101DC000019602960396816941F040018161816923
:101DD00001F040010491816941F010018161816944
:101DE00001F010010491816941F0800181618169F4
:101DF00001F080010491816941F0200181618169D4
:101E000001F020010491816941F004018161806940
:101E1000DFF8809000F00400049001224021484641
:101E2000FFF743F9DFF870A04FF4786801224146CC
:101E30005046FFF73AF9DFF864B0012240215846D6
:101E4000FFF733F901244027CDE9007403256946E3
:101E50004846CDE90245FFF727F8CDE900846946F9
:101E60005046CDE90245FFF71FF8A803CDE900066B
:101E7000694602944846FFF717F8CDE900746946B1
:101E80005846CDE90245FFF70FF805B0BDE8F08FE1
:101E90000010024000180140001C014000100140E9
:101EA0000C4810B50A4901604FF4E131416000214E
:101EB00081600C22C160C0E904128161C161FFF739
:101EC00055FD002803D0BDE81040FEF7A7BD10BDAA
:101ED00000380140600500200C4810B50A49016037
:101EE0004FF4E1314160002181600C22C160C0E902
:101EF00004128161C161FFF739FD002803D0BDE8FC
:101F00001040FEF78BBD10BD00480040A405002026
:101F1000FEE7FEE702490A68C263086070470000F6
:101F20004C010020FFF704BFFFF704BF30B5D0E934
:101F300001458D4202DDC068904202DC4FF0FF3067
:101F400030BDD01702EB5075E81004EBC010084408
:101F500025F007040121121B914002780BB10A43BE
:101F600000E08A430270002030BD70B505460024B1
:101F70000021204600F0D6F805EBC410802100F0C7
:101F8000EBF8641CE4B2082CF2D370BD10B502204B
:101F900000F09AF83F2000F0A9F8002000F080F847
:101FA000002000F08AF8A12000F0C5F8C82000F059
:101FB000C2F80021084600F041F87F2000F054F8F4
:101FC000A42000F0B8F8A62000F0B5F80821002001
:101FD00000F054F8012000F009F80021012000F081
:101FE0002DF8BDE81040AF2000F0A5B810B50400F2
:101FF00001D0012C0AD18D2000F09DF8102000EBBB
:102000008400BDE81040C0B200F095B810BD0000DB
:1020100010B504460848007802280CD17F2C0AD855
:1020200004F00F0000F087F8102000EB1410BDE85A
:10203000104000F080B810BD1C00002070B50C46A8
:10204000050001D0012D0ED10CB1012C0BD1DA20ED
:1020500000F071F8280100EB4410BDE87040801CCE
:10206000C0B200F068B870BD10B50446812000F021
:1020700062F82046BDE8104000F05DB870B50C462F
:1020800005460F280BD80F2C09D8D52000F053F89F
:1020900005EB0410BDE87040C0B200F04CB870BD54
:1020A00010B504463F2807D8D32000F044F8204656
:1020B000BDE8104000F03FB810BD3F2803D84030C5
:1020C000C0B200F038B8704710B5040003D0012C3E
:1020D00001D0022C07D1202000F02DF8204600F07E
:1020E0002AF80148047010BD1C00002010B50446F9
:1020F0000F38312807D2A82000F01DF82046BDE88F
:10210000104000F018B810BD05490978022905D122
:10211000072803D8B030C0B200F00DB870470000F7
:102120001C00002010B50C46FFF7EEFF2046BDE86E
:102130001040FFF76DBF10B50446FFF767FD78202C
:10214000FFF79EFD0020FFF79BFD2046FFF798FD5F
:10215000BDE81040FFF776BD70B50E4605004FF0A4
:10216000000413D0FFF752FD7820FFF789FD4020CF
:10217000FFF786FD04E0285DFFF782FD641CA4B232
:10218000B442F8D3BDE87040FFF75CBD70BD704746
:1021900070B5114CD4F8F8120A22491CB1FBF2F3C5
:1021A00002FB13154FF0FF31A0B1D4F8FC22AA4274
:1021B00010D0D4F8F81201EB410202EB011104EB4C
:1021C000810301464C221846FDF7D0FFC4F8F852AF
:1021D000002070BD084670BDE80500207047000073
:1021E00010B5FEF76DFC0449086008B1002010BD71
:1021F0004FF0FF3010BD0000EC0000200149886066
:1022000070470000100000202DE9F0418AB0984688
:10221000CDE90412064600273AE000BF08EB0700AC
:1022200009A9FEF73DFC074400200890694609987B
:10223000FEF740FC40BB019D1EE0009C13E0221A0B
:1022400001980899281A0828114401DB0838083138
:10225000D6F820C00B78012181400B4030462A4639
:102260002146E047641C029900980144A14202DD26
:10227000B168A142E3DC6D1C039901980844A842AF
:1022800002DDF068A842D8DC069804900798059013
:1022900018F807000028C1D1F169304688470AB014
:1022A0000020BDE8F08100003EB5044633A1FDF7F3
:1022B00081FF00284FD000216A46C01D01E0535421
:1022C000491C435C222BFAD1002050542DA12046FA
:1022D000FDF770FF00283ED010F80A4F2D2C26D0B5
:1022E000303C04222AA16846FDF7A0FF18B3032260
:1022F00029A16846FDF79AFF30B3042227A168465A
:10230000FDF794FF002826D134B300242046FEF7C1
:10231000FFFB10B1C26800219047641C032CF5DB61
:10232000FEF7C4FB002816D00021826812E0407836
:10233000C0F13004D5E79DF804003138FEF7E8FB22
:10234000002808D0C26804E0FEF7B0FB002802D0E5
:102350008268214690473EBD2046FEF7D9FB10B16A
:10236000C26801219047641C032CF5DBFEF79EFB3D
:102370000028F0D001218268ECE700002264657635
:10238000223A220022737461747573223A2200008B
:102390006C616D700000000066616E00686F6D65B5
:1023A00000000000ACB000F089F819A0FEF77CFB3B
:1023B000044641694068FDF7F2FE17A31022002190
:1023C0002046FFF721FF19A3222200212046FFF714
:1023D0001BFF0FA0FEF768FB17A336220021FFF7B3
:1023E00013FF00F00FFAFEF753F906AC6846FEF74C
:1023F00069FB18B9214615A000F040FA13A96846F8
:10240000FEF7FEF80028F1D113A8FFF74DFFEDE726
:102410004F4C45440000000056312E302046726F6C
:102420006D2031303041534B000000005374617215
:1024300074696E672E2E2E005749464920436F6EF1
:102440006E656374696E67202E2E2E007374722081
:102450003A2025730D0A0000FEF732BE30B58FB06A
:1024600028216846FDF79BFE14210AA8FDF797FE78
:1024700001210804CDE900100024029402250491F2
:10248000CDE907504FF4E01009906846FEF7C2FF0F
:1024900008B172B6FEE70F20CDE90A054FF480605F
:1024A000CDE90C4002210AA80E94FEF7C7FE0028D1
:1024B00001D072B6FEE70FB030BD704770B54FF473
:1024C000FA60FFF729FC0020FEF722FB06460120F8
:1024D000FEF71EFB05460220FEF71AFB0446B16814
:1024E00030468847A96828468847A168204688471B
:1024F000FEF7DCFA41688847154DFEF73FF828469D
:10250000FEF7D2FA04001CD0A169884761696068AF
:10251000FDF745FEE16920468847FEF737F80DA034
:10252000FFF75EFEFFF7DAFBFEF73EF8FFF7E0FB92
:10253000FEF748F809A0FEF7F7FA016ABDE8704017
:1025400008472946BDE8704006A000F097B9000092
:1025500010240008617363696900000065737038B6
:102560003236360043616E206E6F742067657420CA
:10257000446973706C61794465766963652025737D
:102580000D0A000010B5024800F02AFB002010BD23
:102590001C09002003480021C0F80014C0F80414EE
:1025A000704700001C0900200846014900F01EBBCE
:1025B0001C09002008461146FFF7BEBB10B5406A53
:1025C0000021C185C184FFF7CAF810BD0168CA683F
:1025D00022F49072CA6001684A6922F001024A61DD
:1025E000016B012904D10168CA6822F01002CA6097
:1025F000202180F83E1000210163704708B590F853
:102600003E10222901D0022008BD82684FF4805379
:102610009A4201D1016921B1816A9A421BD04AB123
:102620000AE00268816A5268C2F308020A80816A7D
:10263000891C08E0026972B10268526802F07F02E8
:102640000A70816A491C8162C18D491E0904090C06
:10265000C18503D019E002685268F1E70168CA68D1
:1026600022F02002CA600168CA6822F48072CA603F
:1026700001684A6922F001024A61202180F83E1077
:10268000016B012903D0FFF717FA002008BD0021D4
:1026900001630168CA6822F01002CA6001680A6812
:1026A000D20602D50A6849680091818DFFF756F875
:1026B000EBE7000070B5044600680169E26821F4A8
:1026C0004051114301612169A068084361690843D1
:1026D0002168CA6841F20C639A430243CA602068C9
:1026E0004169A26921F44071114341611E4920688A
:1026F000884202D1FEF748FE01E0FEF735FE00EB0E
:10270000C00101EB0012606864218000B2FBF0F3AD
:10271000B3FBF1F36FF018067343B2FBF0F5B2FBB5
:10272000F0F605EB8305322303EB0515B5FBF1F558
:10273000B6FBF1F605F0F00505EB0615B2FBF0F679
:10274000B2FBF0F0B0FBF1F06FF01802504306EB73
:10275000800003EB0010B0FBF1F0216800F00F00E7
:102760002844886070BD000000380140084810B55A
:102770000068800606D50648001D00680549C0B2FD
:1027800000F04AFABDE810400348FEF7E9BF000038
:1027900000380140580100206005002070B50D4C44
:1027A000606810B9FEF7C2F960600B4800688006E7
:1027B0000BD50948001D00686168C5B2284600F0C5
:1027C0002BFAA16809B128468847BDE87040034844
:1027D000FEF7C6BF1000002000480040A4050020FE
:1027E00030B5064B00221C1D05E01D682D06FCD5EA
:1027F000855C2560521C8A42F7DB30BD00480040F2
:10280000FEE7000070B50CA0FEF78EF904464FF409
:102810007A75636A0AA20DA12046984730B10DA0CF
:1028200000F02CF82846FFF777FAF2E7BDE8704091
:102830000DA000F023B80000657370383236360002
:10284000313233343536373839000000777A633027
:1028500030310000436F6E6E6563742057494649FE
:10286000206572720D0A0000436F6E6E65637420FE
:1028700057494649206F6B0D0A0000000FB4054B05
:1028800010B503A9044A029800F078F810BC5DF86E
:1028900014FB0000412B0008540100200FB4084B2A
:1028A00010B504A902AA039800F068F8044602A92A
:1028B000002000F03FF9204610BC5DF814FB00003A
:1028C000352B000870B505460748046805E0294621
:1028D0002068FDF794FC20B1646A002CF7D1002039
:1028E00070BD204670BD0000C000002070B50546D8
:1028F0000748046805E029462068FDF780FC20B100
:102900006469002CF7D1002070BD204670BD000026
:102910000801002070B505460748046805E029460F
:102920002068FDF76CFC20B1E46B002CF7D100208F
:1029300070BD204670BD00004C0100200907090E43
:10294000002804DB00F1E02080F80014704700F05C
:102950000F0000F1E02080F8141D704702E008C865
:10296000121F08C1002AFAD170477047002001E009
:1029700001C1121F002AFBD1704700002DE9FF4F53
:102980008BB09A460F460546002606E025280BD058
:1029900052460D9990476D1C761C28780028F5D179
:1029A0000FB03046BDE8F08F0024A04601226049F8
:1029B00000E0044315F8013F203B02FA03F008420F
:1029C000F7D128782E2817D115F8010F44F0040408
:1029D0002A280ED06FF02F022878A0F130010929A3
:1029E0000AD808EB880102EB410100EB01086D1CDD
:1029F000F2E757F8048B6D1C287869283ED006DC76
:102A00000028CDD063280BD0642804D136E0732889
:102A100010D075284BD052460D999047761C85E012
:102A200017F8040B8DF8000000208DF80100E9462E
:102A3000012003E057F8049B4FF0FF3061074FF08F
:102A4000000401D40AE0641C44450DDA8442FADB38
:102A500019F804100029F6D106E0641C8442FCDB5E
:102A600019F804100029F8D1264404E019F8010BE4
:102A700052460D999047641EF8D257E001CF4FF0AF
:102A80000A0B002802DA40422D2102E0210504D57C
:102A90002B218DF82410012103E0E10705D020212E
:102AA000F7E70DF1200908910CE00021F9E701CFCB
:102AB0004FF00A0BF9E75946FDF7C7FB01F1300269
:102AC00009F8012D0028F6D1ADEB090000F1200B2B
:102AD000600701D44FF00108D84502DDA8EB0B00D8
:102AE00000E000208046002406E009A85246005D70
:102AF0000D999047641C761C08988442F5DB04E02D
:102B0000302052460D999047761CB8F10001A8F18B
:102B10000108F5DC05E019F8010B52460D999047C4
:102B2000761CBBF10001ABF1010BF4DC6D1C34E74A
:102B3000092801000A68531C0B60107070470000E0
:102B400013B5064C00202070012269460448FEF7A8
:102B5000BFFF20780028FCD000201CBD1000002002
:102B60006005002010B50022425403A1FDF722FBAE
:102B7000002800D0012010BD4552524F520D0A00CE
:102B800010B50022425403A1FDF714FB002800D029
:102B9000012010BD4F4B0D0A00000000FEF798FA0F
:102BA000FFF75CFCFFF706F9FFF77AF9FFF794F9F6
:102BB000064800F015F8FDF70DFFFDF71DFF04A016
:102BC000FFF75CFEFFF7EEFBFEE700005801002078
:102BD00048656C6C6F20576F726C64210D0A0000A1
:102BE0000021C0F80014C0F804147047D1F8042480
:102BF000D1F800349A4202D14FF0FF307047D1F83B
:102C000004248A5C0270D1F80404401CC0F309005B
:102C1000C1F8040400207047D1F80024D1F804342E
:102C2000521CC2F30902934204D0D1F80034C854B4
:102C3000C1F80024704700000000000000000102FD
:102C40000304060708090000000001020304000055
:102C5000000000000000000000000000000000FE76
:102C6000020202020202003F202020202020000059
:102C7000000000000000000000000000000000FE56
:102C8000020202020202003F20202020202000FE3B
:102C9000020202020202003F20202020202000FE2B
:102CA000020202020202003F20202020202000FE1B
:102CB000020202020202003F20202020202000FE0B
:102CC000020202020202003F20202020202000FEFB
:102CD000020202020202003F2020202020200000E9
:102CE00000000000000000000000000000000000E4
:102CF00000000000000000000000000000000000D4
:102D0000000000000000000000000000000000FEC5
:102D1000020202020202003F20202020202000FEAA
:102D2000020202020202003F20202020202000FE9A
:102D3000020202020202003F20202020202000FE8A
:102D4000020202020202003F20202020202000FE7A
:102D5000020202020202003F20202020202000FE6A
:102D6000020202020202003F20202020202000FE5A
:102D7000020202020202003F20202020202000FE4A
:102D8000020202020202003F20202020202000FE3A
:102D9000020202020202003F20202020202000FE2A
:102DA000020202020202003F20202020202000FE1A
:102DB000020202020202003F20202020202000FE0A
:102DC000020202020202003F20202020202000FEFA
:102DD000020202020202003F20202020202000FEEA
:102DE000020202020202003F20202020202000FEDA
:102DF000020202020202003F20202020202000FECA
:102E0000020202020202003F2020202020200000B7
:102E100000000000000000000000000000000000B2
:102E200000000000000000000000000000000000A2
:102E30000000000000000000000000000000000092
:102E40000000000000000000000000000000000082
:102E50000000000000000000000000000000000072
:102E600000F8000000000000003300000000001027
:102E70000C02100C020000000000000000000040E6
:102E8000C07840C0780000043F04043F0400007094
:102E90008888FC08300000182020FF211E00F00860
:102EA000F0806018000000310C031E211E0000F0AD
:102EB0000888700000001E21232C19272110001201
:102EC0000E000000000000000000000000000000F4
:102ED00000E0180402000000000718204000000273
:102EE0000418E000000000402018070000004040E7
:102EF00080F0804040000202010F01020200000049
:102F00000000E0000000000101010F0101010000CC
:102F100000000000000000907000000000000000B1
:102F2000000000000000000101010101010000009B
:102F30000000000000000030300000000000000031
:102F40000000C0380400006018070000000000E026
:102F500010080810E000000F102020100F000000E3
:102F60001010F8000000000020203F20200000701A
:102F700008080808F0000030282422213000003022
:102F80000808088870000018202121221C00000079
:102F9000804030F8000000060524243F242400F877
:102FA0008888880808000019202020110E0000E001
:102FB000108888900000000F112020201F000018AA
:102FC0000808886818000000003E0100000000703A
:102FD000880808887000001C222121221C0000F0B3
:102FE00008080810E0000001122222110F00000062
:102FF00000C0C000000000000030300000000000F1
:10300000008000000000000000E000000000000060
:103010008040201008000001020408102000004039
:10302000404040404000000202020202020000084C
:1030300010204080000000201008040201000070F1
:103040004808088870000000003037000000C030D9
:10305000C828E810E000071827282F2817000000CC
:10306000C038E0000000203C23020227382008F886
:10307000888888700000203F202020110E00C0307A
:10308000080808083800071820202010080008F851
:1030900008080810E000203F202020100F0008F84A
:1030A0008888E8081000203F20202320180008F816
:1030B0008888E8081000203F200003000000C0308E
:1030C00008080838000007182020221E020008F80F
:1030D00008000008F808203F210101213F200008D6
:1030E00008F8080800000020203F20200000000011
:1030F0000808F8080800C08080807F00000008F8F9
:1031000088C028180800203F20012638200008F831
:10311000080000000000203F20202020300008F898
:10312000F800F8F80800203F013E013F200008F8B1
:1031300030C00008F808203F200007183F00E010CA
:1031400008080810E0000F10202020100F0008F8D9
:1031500008080808F000203F210101010000E010EC
:1031600008080810E0000F10282830504F0008F819
:10317000888888887000203F2000030C3020007071
:103180008808080838000038202121221C0018086F
:1031900008F8080818000000203F2000000008F888
:1031A00008000008F808001F202020201F000878D1
:1031B000880000C83808000007380E01000008F831
:1031C00000F800F8080000033E013E030000081864
:1031D00068808068180820302C03032C30200838C1
:1031E000C800C83808000000203F20000000100878
:1031F0000808C838080020382621202018000000C0
:1032000000FE020202000000007F40404000000477
:1032100038C000000000000000010638C0000002B5
:103220000202FE000000004040407F00000000005D
:103230000402020400000000000000000000000082
:10324000000000000000808080808080808000027C
:103250000204000000000000000000000000000068
:1032600080808000000000192424123F200010F00C
:10327000008080000000003F112020110E0000009F
:10328000008080800000000E11202020110000002E
:1032900080808090F000001F202020103F20000040
:1032A000808080800000001F2424242417000080D8
:1032B00080E0909020000020203F202000000000AF
:1032C000808080808000006B94949493600010F064
:1032D000008080800000203F210000203F200080EF
:1032E0009898000000000020203F202000000000EF
:1032F00000809898000000C08080807F000010F05F
:10330000000080808000203F24062930200000102B
:1033100010F8000000000020203F202000008080E6
:10332000808080808000203F20003F20003F808000
:10333000008080800000203F210000203F2000000E
:10334000808080800000001F202020201F008080BF
:1033500000808000000080FF912020110E000000FE
:10336000008080008000000E11202091FF8080806E
:1033700080008080800020203F212000010000008C
:103380008080808080000033242424241900008061
:1033900080E0808000000000001F2020100080805E
:1033A000000000808000001F202020103F2080802F
:1033B00080008080800000030C300C0300008080BF
:1033C000008080008080010E300C073806010080EC
:1033D0008080008080000020310E2E31200080800F
:1033E00080000080808000818678180601000080BF
:1033F0008080808080000021302C2221300000005D
:10340000000000FC020200000000013E40400000FD
:103410000000FF00000000000000FF0000000202AA
:10342000FC000000000040403E01000000000002DF
:103430000102020402000000000000000000000081
:10344000000000000000000000000000000000007C
:103450006770696F5F6B6579000000006573705F6E
:103460003832363600000000756172743300000097
:103470004F4C45440000000061736369690000001F
:103480006573703832363600A8340008000000201A
:10349000580100009C020008303500085801002047
:1034A000D01300006C29000832018210D324F432BA
:1034B0000213503442084B390A0801145A5C240B99
:1034C0001099092413B11D1B08AD0481297009123C
:1034D00018296C091218411A257C1A21041A6868E7
:1034E0001385251B0895041AB5041AA904411A70FE
:1034F0001813240D3320806A4064220413291F1BF3
:103500000825041A2D04815A78AC5A89D09A45D8D6
:103510001A801C3B302E0201151A65E013C9071CE6
:1035200008FD080419081AB5041AB9140A11A9F8F3
:0400000508000131BD
:00000001FF
